{
  "_format": "hh-sol-artifact-1",
  "contractName": "AtomicSwap",
  "sourceName": "contracts/AtomicSwap.sol",
  "abi": [
    {
      "inputs": [],
      "stateMutability": "nonpayable",
      "type": "constructor"
    },
    {
      "inputs": [],
      "name": "ECDSAInvalidSignature",
      "type": "error"
    },
    {
      "inputs": [
        {
          "internalType": "uint256",
          "name": "length",
          "type": "uint256"
        }
      ],
      "name": "ECDSAInvalidSignatureLength",
      "type": "error"
    },
    {
      "inputs": [
        {
          "internalType": "bytes32",
          "name": "s",
          "type": "bytes32"
        }
      ],
      "name": "ECDSAInvalidSignatureS",
      "type": "error"
    },
    {
      "inputs": [],
      "name": "HashlockAlreadyUsed",
      "type": "error"
    },
    {
      "inputs": [],
      "name": "InsufficientBalance",
      "type": "error"
    },
    {
      "inputs": [],
      "name": "InvalidAmount",
      "type": "error"
    },
    {
      "inputs": [],
      "name": "InvalidNonce",
      "type": "error"
    },
    {
      "inputs": [],
      "name": "InvalidRecipient",
      "type": "error"
    },
    {
      "inputs": [],
      "name": "InvalidSecret",
      "type": "error"
    },
    {
      "inputs": [],
      "name": "InvalidSignature",
      "type": "error"
    },
    {
      "inputs": [],
      "name": "InvalidTimelock",
      "type": "error"
    },
    {
      "inputs": [
        {
          "internalType": "address",
          "name": "owner",
          "type": "address"
        }
      ],
      "name": "OwnableInvalidOwner",
      "type": "error"
    },
    {
      "inputs": [
        {
          "internalType": "address",
          "name": "account",
          "type": "address"
        }
      ],
      "name": "OwnableUnauthorizedAccount",
      "type": "error"
    },
    {
      "inputs": [],
      "name": "ReentrancyGuardReentrantCall",
      "type": "error"
    },
    {
      "inputs": [
        {
          "internalType": "address",
          "name": "token",
          "type": "address"
        }
      ],
      "name": "SafeERC20FailedOperation",
      "type": "error"
    },
    {
      "inputs": [],
      "name": "SignatureAlreadyUsed",
      "type": "error"
    },
    {
      "inputs": [],
      "name": "SignatureExpired",
      "type": "error"
    },
    {
      "inputs": [],
      "name": "SwapAlreadyCompleted",
      "type": "error"
    },
    {
      "inputs": [],
      "name": "SwapAlreadyRefunded",
      "type": "error"
    },
    {
      "inputs": [],
      "name": "SwapNotFound",
      "type": "error"
    },
    {
      "inputs": [],
      "name": "TimelockExpired",
      "type": "error"
    },
    {
      "inputs": [],
      "name": "TimelockNotExpired",
      "type": "error"
    },
    {
      "inputs": [],
      "name": "TransferFailed",
      "type": "error"
    },
    {
      "anonymous": false,
      "inputs": [
        {
          "indexed": true,
          "internalType": "address",
          "name": "previousOwner",
          "type": "address"
        },
        {
          "indexed": true,
          "internalType": "address",
          "name": "newOwner",
          "type": "address"
        }
      ],
      "name": "OwnershipTransferred",
      "type": "event"
    },
    {
      "anonymous": false,
      "inputs": [
        {
          "indexed": true,
          "internalType": "bytes32",
          "name": "hashlock",
          "type": "bytes32"
        },
        {
          "indexed": true,
          "internalType": "address",
          "name": "recipient",
          "type": "address"
        },
        {
          "indexed": false,
          "internalType": "address",
          "name": "token",
          "type": "address"
        },
        {
          "indexed": false,
          "internalType": "uint256",
          "name": "amount",
          "type": "uint256"
        },
        {
          "indexed": false,
          "internalType": "bytes32",
          "name": "secret",
          "type": "bytes32"
        }
      ],
      "name": "SwapCompleted",
      "type": "event"
    },
    {
      "anonymous": false,
      "inputs": [
        {
          "indexed": true,
          "internalType": "bytes32",
          "name": "hashlock",
          "type": "bytes32"
        },
        {
          "indexed": true,
          "internalType": "address",
          "name": "initiator",
          "type": "address"
        },
        {
          "indexed": true,
          "internalType": "address",
          "name": "recipient",
          "type": "address"
        },
        {
          "indexed": false,
          "internalType": "address",
          "name": "token",
          "type": "address"
        },
        {
          "indexed": false,
          "internalType": "uint256",
          "name": "amount",
          "type": "uint256"
        },
        {
          "indexed": false,
          "internalType": "uint256",
          "name": "timelock",
          "type": "uint256"
        }
      ],
      "name": "SwapInitiated",
      "type": "event"
    },
    {
      "anonymous": false,
      "inputs": [
        {
          "indexed": true,
          "internalType": "bytes32",
          "name": "hashlock",
          "type": "bytes32"
        },
        {
          "indexed": true,
          "internalType": "address",
          "name": "initiator",
          "type": "address"
        },
        {
          "indexed": false,
          "internalType": "address",
          "name": "token",
          "type": "address"
        },
        {
          "indexed": false,
          "internalType": "uint256",
          "name": "amount",
          "type": "uint256"
        }
      ],
      "name": "SwapRefunded",
      "type": "event"
    },
    {
      "inputs": [],
      "name": "DOMAIN_SEPARATOR",
      "outputs": [
        {
          "internalType": "bytes32",
          "name": "",
          "type": "bytes32"
        }
      ],
      "stateMutability": "view",
      "type": "function"
    },
    {
      "inputs": [],
      "name": "INITIATE_SWAP_TYPEHASH",
      "outputs": [
        {
          "internalType": "bytes32",
          "name": "",
          "type": "bytes32"
        }
      ],
      "stateMutability": "view",
      "type": "function"
    },
    {
      "inputs": [],
      "name": "MAX_TIMELOCK",
      "outputs": [
        {
          "internalType": "uint256",
          "name": "",
          "type": "uint256"
        }
      ],
      "stateMutability": "view",
      "type": "function"
    },
    {
      "inputs": [],
      "name": "MIN_TIMELOCK",
      "outputs": [
        {
          "internalType": "uint256",
          "name": "",
          "type": "uint256"
        }
      ],
      "stateMutability": "view",
      "type": "function"
    },
    {
      "inputs": [
        {
          "internalType": "bytes32",
          "name": "hashlock",
          "type": "bytes32"
        }
      ],
      "name": "canComplete",
      "outputs": [
        {
          "internalType": "bool",
          "name": "",
          "type": "bool"
        }
      ],
      "stateMutability": "view",
      "type": "function"
    },
    {
      "inputs": [
        {
          "internalType": "bytes32",
          "name": "hashlock",
          "type": "bytes32"
        }
      ],
      "name": "canRefund",
      "outputs": [
        {
          "internalType": "bool",
          "name": "",
          "type": "bool"
        }
      ],
      "stateMutability": "view",
      "type": "function"
    },
    {
      "inputs": [
        {
          "internalType": "bytes32",
          "name": "hashlock",
          "type": "bytes32"
        },
        {
          "internalType": "bytes32",
          "name": "secret",
          "type": "bytes32"
        }
      ],
      "name": "completeSwap",
      "outputs": [],
      "stateMutability": "nonpayable",
      "type": "function"
    },
    {
      "inputs": [
        {
          "internalType": "bytes32",
          "name": "hashlock",
          "type": "bytes32"
        },
        {
          "internalType": "bytes32",
          "name": "secret",
          "type": "bytes32"
        }
      ],
      "name": "completeSwapAsInitiator",
      "outputs": [],
      "stateMutability": "nonpayable",
      "type": "function"
    },
    {
      "inputs": [
        {
          "internalType": "address",
          "name": "token",
          "type": "address"
        },
        {
          "internalType": "uint256",
          "name": "amount",
          "type": "uint256"
        }
      ],
      "name": "emergencyWithdraw",
      "outputs": [],
      "stateMutability": "nonpayable",
      "type": "function"
    },
    {
      "inputs": [
        {
          "internalType": "bytes32",
          "name": "hashlock",
          "type": "bytes32"
        }
      ],
      "name": "getSwap",
      "outputs": [
        {
          "internalType": "address",
          "name": "initiator",
          "type": "address"
        },
        {
          "internalType": "address",
          "name": "recipient",
          "type": "address"
        },
        {
          "internalType": "address",
          "name": "token",
          "type": "address"
        },
        {
          "internalType": "uint256",
          "name": "amount",
          "type": "uint256"
        },
        {
          "internalType": "uint256",
          "name": "timelock",
          "type": "uint256"
        },
        {
          "internalType": "bool",
          "name": "completed",
          "type": "bool"
        },
        {
          "internalType": "bool",
          "name": "refunded",
          "type": "bool"
        }
      ],
      "stateMutability": "view",
      "type": "function"
    },
    {
      "inputs": [
        {
          "internalType": "bytes32",
          "name": "",
          "type": "bytes32"
        }
      ],
      "name": "hashlockUsed",
      "outputs": [
        {
          "internalType": "bool",
          "name": "",
          "type": "bool"
        }
      ],
      "stateMutability": "view",
      "type": "function"
    },
    {
      "inputs": [
        {
          "internalType": "bytes32",
          "name": "hashlock",
          "type": "bytes32"
        },
        {
          "internalType": "uint256",
          "name": "timelock",
          "type": "uint256"
        },
        {
          "internalType": "address",
          "name": "recipient",
          "type": "address"
        },
        {
          "internalType": "uint256",
          "name": "amount",
          "type": "uint256"
        }
      ],
      "name": "initiateSwap",
      "outputs": [],
      "stateMutability": "payable",
      "type": "function"
    },
    {
      "inputs": [
        {
          "components": [
            {
              "internalType": "address",
              "name": "initiator",
              "type": "address"
            },
            {
              "internalType": "bytes32",
              "name": "hashlock",
              "type": "bytes32"
            },
            {
              "internalType": "uint256",
              "name": "timelock",
              "type": "uint256"
            },
            {
              "internalType": "address",
              "name": "recipient",
              "type": "address"
            },
            {
              "internalType": "address",
              "name": "token",
              "type": "address"
            },
            {
              "internalType": "uint256",
              "name": "amount",
              "type": "uint256"
            },
            {
              "internalType": "uint256",
              "name": "nonce",
              "type": "uint256"
            },
            {
              "internalType": "uint256",
              "name": "deadline",
              "type": "uint256"
            }
          ],
          "internalType": "struct AtomicSwap.InitiateSwapMeta",
          "name": "metaData",
          "type": "tuple"
        },
        {
          "internalType": "bytes",
          "name": "signature",
          "type": "bytes"
        }
      ],
      "name": "initiateSwapMeta",
      "outputs": [],
      "stateMutability": "payable",
      "type": "function"
    },
    {
      "inputs": [
        {
          "internalType": "bytes32",
          "name": "hashlock",
          "type": "bytes32"
        },
        {
          "internalType": "uint256",
          "name": "timelock",
          "type": "uint256"
        },
        {
          "internalType": "address",
          "name": "recipient",
          "type": "address"
        },
        {
          "internalType": "address",
          "name": "token",
          "type": "address"
        },
        {
          "internalType": "uint256",
          "name": "amount",
          "type": "uint256"
        }
      ],
      "name": "initiateTokenSwap",
      "outputs": [],
      "stateMutability": "nonpayable",
      "type": "function"
    },
    {
      "inputs": [
        {
          "internalType": "address",
          "name": "",
          "type": "address"
        }
      ],
      "name": "nonces",
      "outputs": [
        {
          "internalType": "uint256",
          "name": "",
          "type": "uint256"
        }
      ],
      "stateMutability": "view",
      "type": "function"
    },
    {
      "inputs": [],
      "name": "owner",
      "outputs": [
        {
          "internalType": "address",
          "name": "",
          "type": "address"
        }
      ],
      "stateMutability": "view",
      "type": "function"
    },
    {
      "inputs": [
        {
          "internalType": "bytes32",
          "name": "hashlock",
          "type": "bytes32"
        }
      ],
      "name": "refundSwap",
      "outputs": [],
      "stateMutability": "nonpayable",
      "type": "function"
    },
    {
      "inputs": [],
      "name": "renounceOwnership",
      "outputs": [],
      "stateMutability": "nonpayable",
      "type": "function"
    },
    {
      "inputs": [
        {
          "internalType": "bytes32",
          "name": "",
          "type": "bytes32"
        }
      ],
      "name": "swaps",
      "outputs": [
        {
          "internalType": "bytes32",
          "name": "hashlock",
          "type": "bytes32"
        },
        {
          "internalType": "uint256",
          "name": "timelock",
          "type": "uint256"
        },
        {
          "internalType": "address",
          "name": "initiator",
          "type": "address"
        },
        {
          "internalType": "address",
          "name": "recipient",
          "type": "address"
        },
        {
          "internalType": "address",
          "name": "token",
          "type": "address"
        },
        {
          "internalType": "uint256",
          "name": "amount",
          "type": "uint256"
        },
        {
          "internalType": "bool",
          "name": "completed",
          "type": "bool"
        },
        {
          "internalType": "bool",
          "name": "refunded",
          "type": "bool"
        }
      ],
      "stateMutability": "view",
      "type": "function"
    },
    {
      "inputs": [
        {
          "internalType": "address",
          "name": "newOwner",
          "type": "address"
        }
      ],
      "name": "transferOwnership",
      "outputs": [],
      "stateMutability": "nonpayable",
      "type": "function"
    },
    {
      "inputs": [
        {
          "internalType": "bytes32",
          "name": "",
          "type": "bytes32"
        }
      ],
      "name": "usedMetaSignatures",
      "outputs": [
        {
          "internalType": "bool",
          "name": "",
          "type": "bool"
        }
      ],
      "stateMutability": "view",
      "type": "function"
    },
    {
      "stateMutability": "payable",
      "type": "receive"
    }
  ],
  "bytecode": "0x60a06040523480156200001157600080fd5b50336001600081905550600073ffffffffffffffffffffffffffffffffffffffff168173ffffffffffffffffffffffffffffffffffffffff1603620000905760006040517f1e4fbdf700000000000000000000000000000000000000000000000000000000815260040162000087919062000283565b60405180910390fd5b620000a1816200017860201b60201c565b507f8b73c3c69bb8fe3d512ecc4cf759cc79239f7b179b0ffacaa9a75d522b39400f6040518060400160405280600a81526020017f41746f6d69635377617000000000000000000000000000000000000000000000815250805190602001206040518060400160405280600181526020017f310000000000000000000000000000000000000000000000000000000000000081525080519060200120463060405160200162000155959493929190620002d6565b604051602081830303815290604052805190602001206080818152505062000333565b6000600160009054906101000a900473ffffffffffffffffffffffffffffffffffffffff16905081600160006101000a81548173ffffffffffffffffffffffffffffffffffffffff021916908373ffffffffffffffffffffffffffffffffffffffff1602179055508173ffffffffffffffffffffffffffffffffffffffff168173ffffffffffffffffffffffffffffffffffffffff167f8be0079c531659141344cd1fd0a4f28419497f9722a3daafe3b4186f6b6457e060405160405180910390a35050565b600073ffffffffffffffffffffffffffffffffffffffff82169050919050565b60006200026b826200023e565b9050919050565b6200027d816200025e565b82525050565b60006020820190506200029a600083018462000272565b92915050565b6000819050919050565b620002b581620002a0565b82525050565b6000819050919050565b620002d081620002bb565b82525050565b600060a082019050620002ed6000830188620002aa565b620002fc6020830187620002aa565b6200030b6040830186620002aa565b6200031a6060830185620002c5565b62000329608083018462000272565b9695505050505050565b6080516131586200035660003960008181610510015261131c01526131586000f3fe60806040526004361061012e5760003560e01c806394f1825b116100ab578063eb84e7f21161006f578063eb84e7f2146103d3578063f2fde38b14610417578063f4611fae14610440578063fb0c75491461047d578063fe2510ee146104a8578063ffdfa6de146104d157610135565b806394f1825b146102fd57806395ccea6714610328578063b401eb5614610351578063c4ddaaa41461036d578063dd781188146103aa57610135565b806378dc3356116100f257806378dc3356146102135780637ecebe001461023c5780638c8c2003146102795780638da5cb5b146102b6578063902d7236146102e157610135565b80633644e5151461013a5780633da0e66e1461016557806342655a4c146101a857806347899a0b146101d3578063715018a6146101fc57610135565b3661013557005b600080fd5b34801561014657600080fd5b5061014f61050e565b60405161015c91906127b9565b60405180910390f35b34801561017157600080fd5b5061018c6004803603810190610187919061280a565b610532565b60405161019f97969594939291906128ac565b60405180910390f35b3480156101b457600080fd5b506101bd61060a565b6040516101ca91906127b9565b60405180910390f35b3480156101df57600080fd5b506101fa60048036038101906101f5919061291b565b61062e565b005b34801561020857600080fd5b50610211610b81565b005b34801561021f57600080fd5b5061023a6004803603810190610235919061291b565b610b95565b005b34801561024857600080fd5b50610263600480360381019061025e9190612987565b610fd6565b60405161027091906129b4565b60405180910390f35b34801561028557600080fd5b506102a0600480360381019061029b919061280a565b610fee565b6040516102ad91906129cf565b60405180910390f35b3480156102c257600080fd5b506102cb6110ac565b6040516102d891906129ea565b60405180910390f35b6102fb60048036038101906102f69190612a31565b6110d6565b005b34801561030957600080fd5b506103126110fa565b60405161031f91906129b4565b60405180910390f35b34801561033457600080fd5b5061034f600480360381019061034a9190612a98565b611101565b005b61036b60048036038101906103669190612b62565b61122d565b005b34801561037957600080fd5b50610394600480360381019061038f919061280a565b61155e565b6040516103a191906129cf565b60405180910390f35b3480156103b657600080fd5b506103d160048036038101906103cc9190612bc4565b61157e565b005b3480156103df57600080fd5b506103fa60048036038101906103f5919061280a565b6115cf565b60405161040e989796959493929190612c3f565b60405180910390f35b34801561042357600080fd5b5061043e60048036038101906104399190612987565b611691565b005b34801561044c57600080fd5b506104676004803603810190610462919061280a565b611717565b60405161047491906129cf565b60405180910390f35b34801561048957600080fd5b506104926117d4565b60405161049f91906129b4565b60405180910390f35b3480156104b457600080fd5b506104cf60048036038101906104ca919061280a565b6117da565b005b3480156104dd57600080fd5b506104f860048036038101906104f3919061280a565b611c43565b60405161050591906129cf565b60405180910390f35b7f000000000000000000000000000000000000000000000000000000000000000081565b600080600080600080600080600460008a815260200190815260200160002090508060020160009054906101000a900473ffffffffffffffffffffffffffffffffffffffff168160030160009054906101000a900473ffffffffffffffffffffffffffffffffffffffff168260040160009054906101000a900473ffffffffffffffffffffffffffffffffffffffff16836005015484600101548560060160009054906101000a900460ff168660060160019054906101000a900460ff16975097509750975097509750975050919395979092949650565b7fdae6e6c77828941043676793d78986b77a85f6a115edd49e62d3e4e0911ef44181565b610636611c63565b6000600460008481526020019081526020016000209050600073ffffffffffffffffffffffffffffffffffffffff168160020160009054906101000a900473ffffffffffffffffffffffffffffffffffffffff1673ffffffffffffffffffffffffffffffffffffffff16036106d7576040517f5ec69df000000000000000000000000000000000000000000000000000000000815260040160405180910390fd5b8060060160009054906101000a900460ff1615610720576040517ff6c6618700000000000000000000000000000000000000000000000000000000815260040160405180910390fd5b8060060160019054906101000a900460ff1615610769576040517fa2640b2700000000000000000000000000000000000000000000000000000000815260040160405180910390fd5b806001015442106107a6576040517f7a6fcaa600000000000000000000000000000000000000000000000000000000815260040160405180910390fd5b82826040516020016107b89190612cde565b6040516020818303038152906040528051906020012014610805576040517fabab6bd700000000000000000000000000000000000000000000000000000000815260040160405180910390fd5b8060020160009054906101000a900473ffffffffffffffffffffffffffffffffffffffff1673ffffffffffffffffffffffffffffffffffffffff163373ffffffffffffffffffffffffffffffffffffffff161461088e576040517f9c8d2cd200000000000000000000000000000000000000000000000000000000815260040160405180910390fd5b8060030160009054906101000a900473ffffffffffffffffffffffffffffffffffffffff1673ffffffffffffffffffffffffffffffffffffffff163373ffffffffffffffffffffffffffffffffffffffff1614610917576040517f9c8d2cd200000000000000000000000000000000000000000000000000000000815260040160405180910390fd5b60018160060160006101000a81548160ff021916908315150217905550600073ffffffffffffffffffffffffffffffffffffffff168160040160009054906101000a900473ffffffffffffffffffffffffffffffffffffffff1673ffffffffffffffffffffffffffffffffffffffff1603610a5d5760008160030160009054906101000a900473ffffffffffffffffffffffffffffffffffffffff1673ffffffffffffffffffffffffffffffffffffffff1682600501546040516109da90612d2a565b60006040518083038185875af1925050503d8060008114610a17576040519150601f19603f3d011682016040523d82523d6000602084013e610a1c565b606091505b5050905080610a57576040517f90b8ec1800000000000000000000000000000000000000000000000000000000815260040160405180910390fd5b50610ad5565b610ad48160030160009054906101000a900473ffffffffffffffffffffffffffffffffffffffff1682600501548360040160009054906101000a900473ffffffffffffffffffffffffffffffffffffffff1673ffffffffffffffffffffffffffffffffffffffff16611ca99092919063ffffffff16565b5b8060030160009054906101000a900473ffffffffffffffffffffffffffffffffffffffff1673ffffffffffffffffffffffffffffffffffffffff16837f7101a42199d5184c26c61de81f21606338bab569912efbd88059560729c877018360040160009054906101000a900473ffffffffffffffffffffffffffffffffffffffff16846005015486604051610b6c93929190612d3f565b60405180910390a350610b7d611d28565b5050565b610b89611d32565b610b936000611db9565b565b610b9d611c63565b6000600460008481526020019081526020016000209050600073ffffffffffffffffffffffffffffffffffffffff168160020160009054906101000a900473ffffffffffffffffffffffffffffffffffffffff1673ffffffffffffffffffffffffffffffffffffffff1603610c3e576040517f5ec69df000000000000000000000000000000000000000000000000000000000815260040160405180910390fd5b8060060160009054906101000a900460ff1615610c87576040517ff6c6618700000000000000000000000000000000000000000000000000000000815260040160405180910390fd5b8060060160019054906101000a900460ff1615610cd0576040517fa2640b2700000000000000000000000000000000000000000000000000000000815260040160405180910390fd5b80600101544210610d0d576040517f7a6fcaa600000000000000000000000000000000000000000000000000000000815260040160405180910390fd5b8282604051602001610d1f9190612cde565b6040516020818303038152906040528051906020012014610d6c576040517fabab6bd700000000000000000000000000000000000000000000000000000000815260040160405180910390fd5b60018160060160006101000a81548160ff021916908315150217905550600073ffffffffffffffffffffffffffffffffffffffff168160040160009054906101000a900473ffffffffffffffffffffffffffffffffffffffff1673ffffffffffffffffffffffffffffffffffffffff1603610eb25760008160030160009054906101000a900473ffffffffffffffffffffffffffffffffffffffff1673ffffffffffffffffffffffffffffffffffffffff168260050154604051610e2f90612d2a565b60006040518083038185875af1925050503d8060008114610e6c576040519150601f19603f3d011682016040523d82523d6000602084013e610e71565b606091505b5050905080610eac576040517f90b8ec1800000000000000000000000000000000000000000000000000000000815260040160405180910390fd5b50610f2a565b610f298160030160009054906101000a900473ffffffffffffffffffffffffffffffffffffffff1682600501548360040160009054906101000a900473ffffffffffffffffffffffffffffffffffffffff1673ffffffffffffffffffffffffffffffffffffffff16611ca99092919063ffffffff16565b5b8060030160009054906101000a900473ffffffffffffffffffffffffffffffffffffffff1673ffffffffffffffffffffffffffffffffffffffff16837f7101a42199d5184c26c61de81f21606338bab569912efbd88059560729c877018360040160009054906101000a900473ffffffffffffffffffffffffffffffffffffffff16846005015486604051610fc193929190612d3f565b60405180910390a350610fd2611d28565b5050565b60026020528060005260406000206000915090505481565b600080600460008481526020019081526020016000209050600073ffffffffffffffffffffffffffffffffffffffff168160020160009054906101000a900473ffffffffffffffffffffffffffffffffffffffff1673ffffffffffffffffffffffffffffffffffffffff16148061107357508060060160009054906101000a900460ff165b8061108c57508060060160019054906101000a900460ff165b1561109b5760009150506110a7565b80600101544210159150505b919050565b6000600160009054906101000a900473ffffffffffffffffffffffffffffffffffffffff16905090565b6110de611c63565b6110ec848484600085611e7f565b6110f4611d28565b50505050565b62093a8081565b611109611d32565b600073ffffffffffffffffffffffffffffffffffffffff168273ffffffffffffffffffffffffffffffffffffffff16036111f65760006111476110ac565b73ffffffffffffffffffffffffffffffffffffffff168260405161116a90612d2a565b60006040518083038185875af1925050503d80600081146111a7576040519150601f19603f3d011682016040523d82523d6000602084013e6111ac565b606091505b50509050806111f0576040517f08c379a00000000000000000000000000000000000000000000000000000000081526004016111e790612dd3565b60405180910390fd5b50611229565b6112286112016110ac565b828473ffffffffffffffffffffffffffffffffffffffff16611ca99092919063ffffffff16565b5b5050565b611235611c63565b8260e00135421115611273576040517f0819bdcd00000000000000000000000000000000000000000000000000000000815260040160405180910390fd5b60007fdae6e6c77828941043676793d78986b77a85f6a115edd49e62d3e4e0911ef4418460000160208101906112a99190612987565b856020013586604001358760600160208101906112c69190612987565b8860800160208101906112d99190612987565b8960a001358a60c001358b60e0013560405160200161130099989796959493929190612df3565b60405160208183030381529060405280519060200120905060007f00000000000000000000000000000000000000000000000000000000000000008260405160200161134d929190612ed7565b6040516020818303038152906040528051906020012090506003600082815260200190815260200160002060009054906101000a900460ff16156113bd576040517f900bb2c900000000000000000000000000000000000000000000000000000000815260040160405180910390fd5b600061141685858080601f016020809104026020016040519081016040528093929190818152602001838380828437600081840152601f19601f820116905080830192505050505050508361239490919063ffffffff16565b905085600001602081019061142b9190612987565b73ffffffffffffffffffffffffffffffffffffffff168173ffffffffffffffffffffffffffffffffffffffff161461148f576040517f8baa579f00000000000000000000000000000000000000000000000000000000815260040160405180910390fd5b60016003600084815260200190815260200160002060006101000a81548160ff021916908315150217905550600260008760000160208101906114d29190612987565b73ffffffffffffffffffffffffffffffffffffffff1673ffffffffffffffffffffffffffffffffffffffff168152602001908152602001600020600081548092919061151d90612f3d565b919050555061154e866020013587604001358860600160208101906115429190612987565b60008a60a00135611e7f565b505050611559611d28565b505050565b60036020528060005260406000206000915054906101000a900460ff1681565b611586611c63565b6115938585858585611e7f565b6115c03330838573ffffffffffffffffffffffffffffffffffffffff166123c0909392919063ffffffff16565b6115c8611d28565b5050505050565b60046020528060005260406000206000915090508060000154908060010154908060020160009054906101000a900473ffffffffffffffffffffffffffffffffffffffff16908060030160009054906101000a900473ffffffffffffffffffffffffffffffffffffffff16908060040160009054906101000a900473ffffffffffffffffffffffffffffffffffffffff16908060050154908060060160009054906101000a900460ff16908060060160019054906101000a900460ff16905088565b611699611d32565b600073ffffffffffffffffffffffffffffffffffffffff168173ffffffffffffffffffffffffffffffffffffffff160361170b5760006040517f1e4fbdf700000000000000000000000000000000000000000000000000000000815260040161170291906129ea565b60405180910390fd5b61171481611db9565b50565b600080600460008481526020019081526020016000209050600073ffffffffffffffffffffffffffffffffffffffff168160020160009054906101000a900473ffffffffffffffffffffffffffffffffffffffff1673ffffffffffffffffffffffffffffffffffffffff16148061179c57508060060160009054906101000a900460ff165b806117b557508060060160019054906101000a900460ff165b156117c45760009150506117cf565b806001015442109150505b919050565b610e1081565b6117e2611c63565b6000600460008381526020019081526020016000209050600073ffffffffffffffffffffffffffffffffffffffff168160020160009054906101000a900473ffffffffffffffffffffffffffffffffffffffff1673ffffffffffffffffffffffffffffffffffffffff1603611883576040517f5ec69df000000000000000000000000000000000000000000000000000000000815260040160405180910390fd5b8060060160009054906101000a900460ff16156118cc576040517ff6c6618700000000000000000000000000000000000000000000000000000000815260040160405180910390fd5b8060060160019054906101000a900460ff1615611915576040517fa2640b2700000000000000000000000000000000000000000000000000000000815260040160405180910390fd5b8060010154421015611953576040517f621e25c300000000000000000000000000000000000000000000000000000000815260040160405180910390fd5b8060020160009054906101000a900473ffffffffffffffffffffffffffffffffffffffff1673ffffffffffffffffffffffffffffffffffffffff163373ffffffffffffffffffffffffffffffffffffffff16146119dc576040517f9c8d2cd200000000000000000000000000000000000000000000000000000000815260040160405180910390fd5b60018160060160016101000a81548160ff021916908315150217905550600073ffffffffffffffffffffffffffffffffffffffff168160040160009054906101000a900473ffffffffffffffffffffffffffffffffffffffff1673ffffffffffffffffffffffffffffffffffffffff1603611b225760008160020160009054906101000a900473ffffffffffffffffffffffffffffffffffffffff1673ffffffffffffffffffffffffffffffffffffffff168260050154604051611a9f90612d2a565b60006040518083038185875af1925050503d8060008114611adc576040519150601f19603f3d011682016040523d82523d6000602084013e611ae1565b606091505b5050905080611b1c576040517f90b8ec1800000000000000000000000000000000000000000000000000000000815260040160405180910390fd5b50611b9a565b611b998160020160009054906101000a900473ffffffffffffffffffffffffffffffffffffffff1682600501548360040160009054906101000a900473ffffffffffffffffffffffffffffffffffffffff1673ffffffffffffffffffffffffffffffffffffffff16611ca99092919063ffffffff16565b5b8060020160009054906101000a900473ffffffffffffffffffffffffffffffffffffffff1673ffffffffffffffffffffffffffffffffffffffff16827fa19ac6ff80a8c71a18b3fd648fa480fa092eceb40ca2af1fadc2a1cc6e1baf7b8360040160009054906101000a900473ffffffffffffffffffffffffffffffffffffffff168460050154604051611c2f929190612f85565b60405180910390a350611c40611d28565b50565b60056020528060005260406000206000915054906101000a900460ff1681565b600260005403611c9f576040517f3ee5aeb500000000000000000000000000000000000000000000000000000000815260040160405180910390fd5b6002600081905550565b611d23838473ffffffffffffffffffffffffffffffffffffffff1663a9059cbb8585604051602401611cdc929190612f85565b604051602081830303815290604052915060e01b6020820180517bffffffffffffffffffffffffffffffffffffffffffffffffffffffff8381831617835250505050612442565b505050565b6001600081905550565b611d3a6124e4565b73ffffffffffffffffffffffffffffffffffffffff16611d586110ac565b73ffffffffffffffffffffffffffffffffffffffff1614611db757611d7b6124e4565b6040517f118cdaa7000000000000000000000000000000000000000000000000000000008152600401611dae91906129ea565b60405180910390fd5b565b6000600160009054906101000a900473ffffffffffffffffffffffffffffffffffffffff16905081600160006101000a81548173ffffffffffffffffffffffffffffffffffffffff021916908373ffffffffffffffffffffffffffffffffffffffff1602179055508173ffffffffffffffffffffffffffffffffffffffff168173ffffffffffffffffffffffffffffffffffffffff167f8be0079c531659141344cd1fd0a4f28419497f9722a3daafe3b4186f6b6457e060405160405180910390a35050565b6005600086815260200190815260200160002060009054906101000a900460ff1615611ed7576040517fe9204a0600000000000000000000000000000000000000000000000000000000815260040160405180910390fd5b610e1042611ee59190612fae565b841080611eff575062093a8042611efc9190612fae565b84115b15611f36576040517ff8d10e8200000000000000000000000000000000000000000000000000000000815260040160405180910390fd5b600073ffffffffffffffffffffffffffffffffffffffff168373ffffffffffffffffffffffffffffffffffffffff1603611f9c576040517f9c8d2cd200000000000000000000000000000000000000000000000000000000815260040160405180910390fd5b60008103611fd6576040517f2c5211c600000000000000000000000000000000000000000000000000000000815260040160405180910390fd5b600073ffffffffffffffffffffffffffffffffffffffff168273ffffffffffffffffffffffffffffffffffffffff160361204457803414612043576040517f2c5211c600000000000000000000000000000000000000000000000000000000815260040160405180910390fd5b5b600073ffffffffffffffffffffffffffffffffffffffff168273ffffffffffffffffffffffffffffffffffffffff161461212c57808273ffffffffffffffffffffffffffffffffffffffff166370a08231336040518263ffffffff1660e01b81526004016120b291906129ea565b602060405180830381865afa1580156120cf573d6000803e3d6000fd5b505050506040513d601f19601f820116820180604052508101906120f39190612ff7565b101561212b576040517ff4d678b800000000000000000000000000000000000000000000000000000000815260040160405180910390fd5b5b6040518061010001604052808681526020018581526020013373ffffffffffffffffffffffffffffffffffffffff1681526020018473ffffffffffffffffffffffffffffffffffffffff1681526020018373ffffffffffffffffffffffffffffffffffffffff1681526020018281526020016000151581526020016000151581525060046000878152602001908152602001600020600082015181600001556020820151816001015560408201518160020160006101000a81548173ffffffffffffffffffffffffffffffffffffffff021916908373ffffffffffffffffffffffffffffffffffffffff16021790555060608201518160030160006101000a81548173ffffffffffffffffffffffffffffffffffffffff021916908373ffffffffffffffffffffffffffffffffffffffff16021790555060808201518160040160006101000a81548173ffffffffffffffffffffffffffffffffffffffff021916908373ffffffffffffffffffffffffffffffffffffffff16021790555060a0820151816005015560c08201518160060160006101000a81548160ff02191690831515021790555060e08201518160060160016101000a81548160ff02191690831515021790555090505060016005600087815260200190815260200160002060006101000a81548160ff0219169083151502179055508273ffffffffffffffffffffffffffffffffffffffff163373ffffffffffffffffffffffffffffffffffffffff16867ff7fed894f2fc26a47c345a04b644fb954bf11c27c2eec80f3f7ffb2cb07ea74285858960405161238593929190613024565b60405180910390a45050505050565b6000806000806123a486866124ec565b9250925092506123b48282612548565b82935050505092915050565b61243c848573ffffffffffffffffffffffffffffffffffffffff166323b872dd8686866040516024016123f59392919061305b565b604051602081830303815290604052915060e01b6020820180517bffffffffffffffffffffffffffffffffffffffffffffffffffffffff8381831617835250505050612442565b50505050565b600080602060008451602086016000885af180612465576040513d6000823e3d81fd5b3d92506000519150506000821461248057600181141561249c565b60008473ffffffffffffffffffffffffffffffffffffffff163b145b156124de57836040517f5274afe70000000000000000000000000000000000000000000000000000000081526004016124d591906129ea565b60405180910390fd5b50505050565b600033905090565b600080600060418451036125315760008060006020870151925060408701519150606087015160001a9050612523888285856126ac565b955095509550505050612541565b60006002855160001b9250925092505b9250925092565b6000600381111561255c5761255b613092565b5b82600381111561256f5761256e613092565b5b03156126a8576001600381111561258957612588613092565b5b82600381111561259c5761259b613092565b5b036125d3576040517ff645eedf00000000000000000000000000000000000000000000000000000000815260040160405180910390fd5b600260038111156125e7576125e6613092565b5b8260038111156125fa576125f9613092565b5b0361263f578060001c6040517ffce698f700000000000000000000000000000000000000000000000000000000815260040161263691906129b4565b60405180910390fd5b60038081111561265257612651613092565b5b82600381111561266557612664613092565b5b036126a757806040517fd78bce0c00000000000000000000000000000000000000000000000000000000815260040161269e91906127b9565b60405180910390fd5b5b5050565b60008060007f7fffffffffffffffffffffffffffffff5d576e7357a4501ddfe92f46681b20a08460001c11156126ec576000600385925092509250612796565b60006001888888886040516000815260200160405260405161271194939291906130dd565b6020604051602081039080840390855afa158015612733573d6000803e3d6000fd5b505050602060405103519050600073ffffffffffffffffffffffffffffffffffffffff168173ffffffffffffffffffffffffffffffffffffffff160361278757600060016000801b93509350935050612796565b8060008060001b935093509350505b9450945094915050565b6000819050919050565b6127b3816127a0565b82525050565b60006020820190506127ce60008301846127aa565b92915050565b600080fd5b600080fd5b6127e7816127a0565b81146127f257600080fd5b50565b600081359050612804816127de565b92915050565b6000602082840312156128205761281f6127d4565b5b600061282e848285016127f5565b91505092915050565b600073ffffffffffffffffffffffffffffffffffffffff82169050919050565b600061286282612837565b9050919050565b61287281612857565b82525050565b6000819050919050565b61288b81612878565b82525050565b60008115159050919050565b6128a681612891565b82525050565b600060e0820190506128c1600083018a612869565b6128ce6020830189612869565b6128db6040830188612869565b6128e86060830187612882565b6128f56080830186612882565b61290260a083018561289d565b61290f60c083018461289d565b98975050505050505050565b60008060408385031215612932576129316127d4565b5b6000612940858286016127f5565b9250506020612951858286016127f5565b9150509250929050565b61296481612857565b811461296f57600080fd5b50565b6000813590506129818161295b565b92915050565b60006020828403121561299d5761299c6127d4565b5b60006129ab84828501612972565b91505092915050565b60006020820190506129c96000830184612882565b92915050565b60006020820190506129e4600083018461289d565b92915050565b60006020820190506129ff6000830184612869565b92915050565b612a0e81612878565b8114612a1957600080fd5b50565b600081359050612a2b81612a05565b92915050565b60008060008060808587031215612a4b57612a4a6127d4565b5b6000612a59878288016127f5565b9450506020612a6a87828801612a1c565b9350506040612a7b87828801612972565b9250506060612a8c87828801612a1c565b91505092959194509250565b60008060408385031215612aaf57612aae6127d4565b5b6000612abd85828601612972565b9250506020612ace85828601612a1c565b9150509250929050565b600080fd5b60006101008284031215612af457612af3612ad8565b5b81905092915050565b600080fd5b600080fd5b600080fd5b60008083601f840112612b2257612b21612afd565b5b8235905067ffffffffffffffff811115612b3f57612b3e612b02565b5b602083019150836001820283011115612b5b57612b5a612b07565b5b9250929050565b60008060006101208486031215612b7c57612b7b6127d4565b5b6000612b8a86828701612add565b93505061010084013567ffffffffffffffff811115612bac57612bab6127d9565b5b612bb886828701612b0c565b92509250509250925092565b600080600080600060a08688031215612be057612bdf6127d4565b5b6000612bee888289016127f5565b9550506020612bff88828901612a1c565b9450506040612c1088828901612972565b9350506060612c2188828901612972565b9250506080612c3288828901612a1c565b9150509295509295909350565b600061010082019050612c55600083018b6127aa565b612c62602083018a612882565b612c6f6040830189612869565b612c7c6060830188612869565b612c896080830187612869565b612c9660a0830186612882565b612ca360c083018561289d565b612cb060e083018461289d565b9998505050505050505050565b6000819050919050565b612cd8612cd3826127a0565b612cbd565b82525050565b6000612cea8284612cc7565b60208201915081905092915050565b600081905092915050565b50565b6000612d14600083612cf9565b9150612d1f82612d04565b600082019050919050565b6000612d3582612d07565b9150819050919050565b6000606082019050612d546000830186612869565b612d616020830185612882565b612d6e60408301846127aa565b949350505050565b600082825260208201905092915050565b7f455448207472616e73666572206661696c656400000000000000000000000000600082015250565b6000612dbd601383612d76565b9150612dc882612d87565b602082019050919050565b60006020820190508181036000830152612dec81612db0565b9050919050565b600061012082019050612e09600083018c6127aa565b612e16602083018b612869565b612e23604083018a6127aa565b612e306060830189612882565b612e3d6080830188612869565b612e4a60a0830187612869565b612e5760c0830186612882565b612e6460e0830185612882565b612e72610100830184612882565b9a9950505050505050505050565b600081905092915050565b7f1901000000000000000000000000000000000000000000000000000000000000600082015250565b6000612ec1600283612e80565b9150612ecc82612e8b565b600282019050919050565b6000612ee282612eb4565b9150612eee8285612cc7565b602082019150612efe8284612cc7565b6020820191508190509392505050565b7f4e487b7100000000000000000000000000000000000000000000000000000000600052601160045260246000fd5b6000612f4882612878565b91507fffffffffffffffffffffffffffffffffffffffffffffffffffffffffffffffff8203612f7a57612f79612f0e565b5b600182019050919050565b6000604082019050612f9a6000830185612869565b612fa76020830184612882565b9392505050565b6000612fb982612878565b9150612fc483612878565b9250828201905080821115612fdc57612fdb612f0e565b5b92915050565b600081519050612ff181612a05565b92915050565b60006020828403121561300d5761300c6127d4565b5b600061301b84828501612fe2565b91505092915050565b60006060820190506130396000830186612869565b6130466020830185612882565b6130536040830184612882565b949350505050565b60006060820190506130706000830186612869565b61307d6020830185612869565b61308a6040830184612882565b949350505050565b7f4e487b7100000000000000000000000000000000000000000000000000000000600052602160045260246000fd5b600060ff82169050919050565b6130d7816130c1565b82525050565b60006080820190506130f260008301876127aa565b6130ff60208301866130ce565b61310c60408301856127aa565b61311960608301846127aa565b9594505050505056fea2646970667358221220fd5dcda3a991b4be37a2b0622f8c9fd1fde4238f88345da5f8867c7d250d964c64736f6c63430008180033",
  "linkReferences": {},
  "deployedLinkReferences": {}
}