{
  "_format": "hh-sol-artifact-1",
  "contractName": "AtomicSwap",
  "sourceName": "contracts/AtomicSwap.sol",
  "abi": [
    {
      "inputs": [],
      "stateMutability": "nonpayable",
      "type": "constructor"
    },
    {
      "inputs": [],
      "name": "ECDSAInvalidSignature",
      "type": "error"
    },
    {
      "inputs": [
        {
          "internalType": "uint256",
          "name": "length",
          "type": "uint256"
        }
      ],
      "name": "ECDSAInvalidSignatureLength",
      "type": "error"
    },
    {
      "inputs": [
        {
          "internalType": "bytes32",
          "name": "s",
          "type": "bytes32"
        }
      ],
      "name": "ECDSAInvalidSignatureS",
      "type": "error"
    },
    {
      "inputs": [],
      "name": "HashlockAlreadyUsed",
      "type": "error"
    },
    {
      "inputs": [],
      "name": "InsufficientBalance",
      "type": "error"
    },
    {
      "inputs": [],
      "name": "InvalidAmount",
      "type": "error"
    },
    {
      "inputs": [],
      "name": "InvalidNonce",
      "type": "error"
    },
    {
      "inputs": [],
      "name": "InvalidRecipient",
      "type": "error"
    },
    {
      "inputs": [],
      "name": "InvalidSecret",
      "type": "error"
    },
    {
      "inputs": [],
      "name": "InvalidSignature",
      "type": "error"
    },
    {
      "inputs": [],
      "name": "InvalidTimelock",
      "type": "error"
    },
    {
      "inputs": [
        {
          "internalType": "address",
          "name": "owner",
          "type": "address"
        }
      ],
      "name": "OwnableInvalidOwner",
      "type": "error"
    },
    {
      "inputs": [
        {
          "internalType": "address",
          "name": "account",
          "type": "address"
        }
      ],
      "name": "OwnableUnauthorizedAccount",
      "type": "error"
    },
    {
      "inputs": [],
      "name": "ReentrancyGuardReentrantCall",
      "type": "error"
    },
    {
      "inputs": [
        {
          "internalType": "address",
          "name": "token",
          "type": "address"
        }
      ],
      "name": "SafeERC20FailedOperation",
      "type": "error"
    },
    {
      "inputs": [],
      "name": "SignatureAlreadyUsed",
      "type": "error"
    },
    {
      "inputs": [],
      "name": "SignatureExpired",
      "type": "error"
    },
    {
      "inputs": [],
      "name": "SwapAlreadyCompleted",
      "type": "error"
    },
    {
      "inputs": [],
      "name": "SwapAlreadyRefunded",
      "type": "error"
    },
    {
      "inputs": [],
      "name": "SwapNotFound",
      "type": "error"
    },
    {
      "inputs": [],
      "name": "TimelockExpired",
      "type": "error"
    },
    {
      "inputs": [],
      "name": "TimelockNotExpired",
      "type": "error"
    },
    {
      "inputs": [],
      "name": "TransferFailed",
      "type": "error"
    },
    {
      "anonymous": false,
      "inputs": [
        {
          "indexed": true,
          "internalType": "address",
          "name": "previousOwner",
          "type": "address"
        },
        {
          "indexed": true,
          "internalType": "address",
          "name": "newOwner",
          "type": "address"
        }
      ],
      "name": "OwnershipTransferred",
      "type": "event"
    },
    {
      "anonymous": false,
      "inputs": [
        {
          "indexed": true,
          "internalType": "bytes32",
          "name": "hashlock",
          "type": "bytes32"
        },
        {
          "indexed": true,
          "internalType": "address",
          "name": "recipient",
          "type": "address"
        },
        {
          "indexed": false,
          "internalType": "address",
          "name": "token",
          "type": "address"
        },
        {
          "indexed": false,
          "internalType": "uint256",
          "name": "amount",
          "type": "uint256"
        },
        {
          "indexed": false,
          "internalType": "bytes32",
          "name": "secret",
          "type": "bytes32"
        }
      ],
      "name": "SwapCompleted",
      "type": "event"
    },
    {
      "anonymous": false,
      "inputs": [
        {
          "indexed": true,
          "internalType": "bytes32",
          "name": "hashlock",
          "type": "bytes32"
        },
        {
          "indexed": true,
          "internalType": "address",
          "name": "initiator",
          "type": "address"
        },
        {
          "indexed": true,
          "internalType": "address",
          "name": "recipient",
          "type": "address"
        },
        {
          "indexed": false,
          "internalType": "address",
          "name": "token",
          "type": "address"
        },
        {
          "indexed": false,
          "internalType": "uint256",
          "name": "amount",
          "type": "uint256"
        },
        {
          "indexed": false,
          "internalType": "uint256",
          "name": "timelock",
          "type": "uint256"
        }
      ],
      "name": "SwapInitiated",
      "type": "event"
    },
    {
      "anonymous": false,
      "inputs": [
        {
          "indexed": true,
          "internalType": "bytes32",
          "name": "hashlock",
          "type": "bytes32"
        },
        {
          "indexed": true,
          "internalType": "address",
          "name": "initiator",
          "type": "address"
        },
        {
          "indexed": false,
          "internalType": "address",
          "name": "token",
          "type": "address"
        },
        {
          "indexed": false,
          "internalType": "uint256",
          "name": "amount",
          "type": "uint256"
        }
      ],
      "name": "SwapRefunded",
      "type": "event"
    },
    {
      "inputs": [],
      "name": "DOMAIN_SEPARATOR",
      "outputs": [
        {
          "internalType": "bytes32",
          "name": "",
          "type": "bytes32"
        }
      ],
      "stateMutability": "view",
      "type": "function"
    },
    {
      "inputs": [],
      "name": "INITIATE_SWAP_TYPEHASH",
      "outputs": [
        {
          "internalType": "bytes32",
          "name": "",
          "type": "bytes32"
        }
      ],
      "stateMutability": "view",
      "type": "function"
    },
    {
      "inputs": [],
      "name": "MAX_TIMELOCK",
      "outputs": [
        {
          "internalType": "uint256",
          "name": "",
          "type": "uint256"
        }
      ],
      "stateMutability": "view",
      "type": "function"
    },
    {
      "inputs": [],
      "name": "MIN_TIMELOCK",
      "outputs": [
        {
          "internalType": "uint256",
          "name": "",
          "type": "uint256"
        }
      ],
      "stateMutability": "view",
      "type": "function"
    },
    {
      "inputs": [
        {
          "internalType": "bytes32",
          "name": "hashlock",
          "type": "bytes32"
        }
      ],
      "name": "canComplete",
      "outputs": [
        {
          "internalType": "bool",
          "name": "",
          "type": "bool"
        }
      ],
      "stateMutability": "view",
      "type": "function"
    },
    {
      "inputs": [
        {
          "internalType": "bytes32",
          "name": "hashlock",
          "type": "bytes32"
        }
      ],
      "name": "canRefund",
      "outputs": [
        {
          "internalType": "bool",
          "name": "",
          "type": "bool"
        }
      ],
      "stateMutability": "view",
      "type": "function"
    },
    {
      "inputs": [
        {
          "internalType": "bytes32",
          "name": "hashlock",
          "type": "bytes32"
        },
        {
          "internalType": "bytes32",
          "name": "secret",
          "type": "bytes32"
        }
      ],
      "name": "completeSwap",
      "outputs": [],
      "stateMutability": "nonpayable",
      "type": "function"
    },
    {
      "inputs": [
        {
          "internalType": "bytes32",
          "name": "hashlock",
          "type": "bytes32"
        },
        {
          "internalType": "bytes32",
          "name": "secret",
          "type": "bytes32"
        }
      ],
      "name": "completeSwapAsInitiator",
      "outputs": [],
      "stateMutability": "nonpayable",
      "type": "function"
    },
    {
      "inputs": [
        {
          "internalType": "address",
          "name": "token",
          "type": "address"
        },
        {
          "internalType": "uint256",
          "name": "amount",
          "type": "uint256"
        }
      ],
      "name": "emergencyWithdraw",
      "outputs": [],
      "stateMutability": "nonpayable",
      "type": "function"
    },
    {
      "inputs": [
        {
          "internalType": "bytes32",
          "name": "hashlock",
          "type": "bytes32"
        }
      ],
      "name": "getSwap",
      "outputs": [
        {
          "internalType": "address",
          "name": "initiator",
          "type": "address"
        },
        {
          "internalType": "address",
          "name": "recipient",
          "type": "address"
        },
        {
          "internalType": "address",
          "name": "token",
          "type": "address"
        },
        {
          "internalType": "uint256",
          "name": "amount",
          "type": "uint256"
        },
        {
          "internalType": "uint256",
          "name": "timelock",
          "type": "uint256"
        },
        {
          "internalType": "bool",
          "name": "completed",
          "type": "bool"
        },
        {
          "internalType": "bool",
          "name": "refunded",
          "type": "bool"
        }
      ],
      "stateMutability": "view",
      "type": "function"
    },
    {
      "inputs": [
        {
          "internalType": "bytes32",
          "name": "",
          "type": "bytes32"
        }
      ],
      "name": "hashlockUsed",
      "outputs": [
        {
          "internalType": "bool",
          "name": "",
          "type": "bool"
        }
      ],
      "stateMutability": "view",
      "type": "function"
    },
    {
      "inputs": [
        {
          "internalType": "bytes32",
          "name": "hashlock",
          "type": "bytes32"
        },
        {
          "internalType": "uint256",
          "name": "timelock",
          "type": "uint256"
        },
        {
          "internalType": "address",
          "name": "recipient",
          "type": "address"
        },
        {
          "internalType": "uint256",
          "name": "amount",
          "type": "uint256"
        }
      ],
      "name": "initiateSwap",
      "outputs": [],
      "stateMutability": "payable",
      "type": "function"
    },
    {
      "inputs": [
        {
          "components": [
            {
              "internalType": "address",
              "name": "initiator",
              "type": "address"
            },
            {
              "internalType": "bytes32",
              "name": "hashlock",
              "type": "bytes32"
            },
            {
              "internalType": "uint256",
              "name": "timelock",
              "type": "uint256"
            },
            {
              "internalType": "address",
              "name": "recipient",
              "type": "address"
            },
            {
              "internalType": "address",
              "name": "token",
              "type": "address"
            },
            {
              "internalType": "uint256",
              "name": "amount",
              "type": "uint256"
            },
            {
              "internalType": "uint256",
              "name": "nonce",
              "type": "uint256"
            },
            {
              "internalType": "uint256",
              "name": "deadline",
              "type": "uint256"
            }
          ],
          "internalType": "struct AtomicSwap.InitiateSwapMeta",
          "name": "metaData",
          "type": "tuple"
        },
        {
          "internalType": "bytes",
          "name": "signature",
          "type": "bytes"
        },
        {
          "internalType": "bool",
          "name": "useDeposited",
          "type": "bool"
        }
      ],
      "name": "initiateSwapMeta",
      "outputs": [],
      "stateMutability": "payable",
      "type": "function"
    },
    {
      "inputs": [
        {
          "internalType": "bytes32",
          "name": "hashlock",
          "type": "bytes32"
        },
        {
          "internalType": "uint256",
          "name": "timelock",
          "type": "uint256"
        },
        {
          "internalType": "address",
          "name": "recipient",
          "type": "address"
        },
        {
          "internalType": "address",
          "name": "token",
          "type": "address"
        },
        {
          "internalType": "uint256",
          "name": "amount",
          "type": "uint256"
        }
      ],
      "name": "initiateTokenSwap",
      "outputs": [],
      "stateMutability": "nonpayable",
      "type": "function"
    },
    {
      "inputs": [
        {
          "internalType": "address",
          "name": "",
          "type": "address"
        }
      ],
      "name": "nonces",
      "outputs": [
        {
          "internalType": "uint256",
          "name": "",
          "type": "uint256"
        }
      ],
      "stateMutability": "view",
      "type": "function"
    },
    {
      "inputs": [],
      "name": "owner",
      "outputs": [
        {
          "internalType": "address",
          "name": "",
          "type": "address"
        }
      ],
      "stateMutability": "view",
      "type": "function"
    },
    {
      "inputs": [
        {
          "internalType": "bytes32",
          "name": "hashlock",
          "type": "bytes32"
        }
      ],
      "name": "refundSwap",
      "outputs": [],
      "stateMutability": "nonpayable",
      "type": "function"
    },
    {
      "inputs": [],
      "name": "renounceOwnership",
      "outputs": [],
      "stateMutability": "nonpayable",
      "type": "function"
    },
    {
      "inputs": [
        {
          "internalType": "bytes32",
          "name": "",
          "type": "bytes32"
        }
      ],
      "name": "swaps",
      "outputs": [
        {
          "internalType": "bytes32",
          "name": "hashlock",
          "type": "bytes32"
        },
        {
          "internalType": "uint256",
          "name": "timelock",
          "type": "uint256"
        },
        {
          "internalType": "address",
          "name": "initiator",
          "type": "address"
        },
        {
          "internalType": "address",
          "name": "recipient",
          "type": "address"
        },
        {
          "internalType": "address",
          "name": "token",
          "type": "address"
        },
        {
          "internalType": "uint256",
          "name": "amount",
          "type": "uint256"
        },
        {
          "internalType": "bool",
          "name": "completed",
          "type": "bool"
        },
        {
          "internalType": "bool",
          "name": "refunded",
          "type": "bool"
        }
      ],
      "stateMutability": "view",
      "type": "function"
    },
    {
      "inputs": [
        {
          "internalType": "address",
          "name": "newOwner",
          "type": "address"
        }
      ],
      "name": "transferOwnership",
      "outputs": [],
      "stateMutability": "nonpayable",
      "type": "function"
    },
    {
      "inputs": [
        {
          "internalType": "bytes32",
          "name": "",
          "type": "bytes32"
        }
      ],
      "name": "usedMetaSignatures",
      "outputs": [
        {
          "internalType": "bool",
          "name": "",
          "type": "bool"
        }
      ],
      "stateMutability": "view",
      "type": "function"
    },
    {
      "stateMutability": "payable",
      "type": "receive"
    }
  ],
  "bytecode": "0x60a06040523480156200001157600080fd5b50336001600081905550600073ffffffffffffffffffffffffffffffffffffffff168173ffffffffffffffffffffffffffffffffffffffff1603620000905760006040517f1e4fbdf700000000000000000000000000000000000000000000000000000000815260040162000087919062000283565b60405180910390fd5b620000a1816200017860201b60201c565b507f8b73c3c69bb8fe3d512ecc4cf759cc79239f7b179b0ffacaa9a75d522b39400f6040518060400160405280600a81526020017f41746f6d69635377617000000000000000000000000000000000000000000000815250805190602001206040518060400160405280600181526020017f310000000000000000000000000000000000000000000000000000000000000081525080519060200120463060405160200162000155959493929190620002d6565b604051602081830303815290604052805190602001206080818152505062000333565b6000600160009054906101000a900473ffffffffffffffffffffffffffffffffffffffff16905081600160006101000a81548173ffffffffffffffffffffffffffffffffffffffff021916908373ffffffffffffffffffffffffffffffffffffffff1602179055508173ffffffffffffffffffffffffffffffffffffffff168173ffffffffffffffffffffffffffffffffffffffff167f8be0079c531659141344cd1fd0a4f28419497f9722a3daafe3b4186f6b6457e060405160405180910390a35050565b600073ffffffffffffffffffffffffffffffffffffffff82169050919050565b60006200026b826200023e565b9050919050565b6200027d816200025e565b82525050565b60006020820190506200029a600083018462000272565b92915050565b6000819050919050565b620002b581620002a0565b82525050565b6000819050919050565b620002d081620002bb565b82525050565b600060a082019050620002ed6000830188620002aa565b620002fc6020830187620002aa565b6200030b6040830186620002aa565b6200031a6060830185620002c5565b62000329608083018462000272565b9695505050505050565b60805161324a620003566000396000818161051001526106af015261324a6000f3fe60806040526004361061012e5760003560e01c8063902d7236116100ab578063eb84e7f21161006f578063eb84e7f2146103d3578063f2fde38b14610417578063f4611fae14610440578063fb0c75491461047d578063fe2510ee146104a8578063ffdfa6de146104d157610135565b8063902d7236146102fd57806394f1825b1461031957806395ccea6714610344578063c4ddaaa41461036d578063dd781188146103aa57610135565b8063715018a6116100f2578063715018a61461021857806378dc33561461022f5780637ecebe00146102585780638c8c2003146102955780638da5cb5b146102d257610135565b80633644e5151461013a5780633a34fb7c146101655780633da0e66e1461018157806342655a4c146101c457806347899a0b146101ef57610135565b3661013557005b600080fd5b34801561014657600080fd5b5061014f61050e565b60405161015c919061286a565b60405180910390f35b61017f600480360381019061017a9190612951565b610532565b005b34801561018d57600080fd5b506101a860048036038101906101a391906129f4565b6108f0565b6040516101bb9796959493929190612a8a565b60405180910390f35b3480156101d057600080fd5b506101d96109c8565b6040516101e6919061286a565b60405180910390f35b3480156101fb57600080fd5b5061021660048036038101906102119190612af9565b6109ec565b005b34801561022457600080fd5b5061022d610f3f565b005b34801561023b57600080fd5b5061025660048036038101906102519190612af9565b610f53565b005b34801561026457600080fd5b5061027f600480360381019061027a9190612b65565b611394565b60405161028c9190612b92565b60405180910390f35b3480156102a157600080fd5b506102bc60048036038101906102b791906129f4565b6113ac565b6040516102c99190612bad565b60405180910390f35b3480156102de57600080fd5b506102e761146a565b6040516102f49190612bc8565b60405180910390f35b61031760048036038101906103129190612c0f565b611494565b005b34801561032557600080fd5b5061032e6114b8565b60405161033b9190612b92565b60405180910390f35b34801561035057600080fd5b5061036b60048036038101906103669190612c76565b6114bf565b005b34801561037957600080fd5b50610394600480360381019061038f91906129f4565b6115eb565b6040516103a19190612bad565b60405180910390f35b3480156103b657600080fd5b506103d160048036038101906103cc9190612cb6565b61160b565b005b3480156103df57600080fd5b506103fa60048036038101906103f591906129f4565b61165c565b60405161040e989796959493929190612d31565b60405180910390f35b34801561042357600080fd5b5061043e60048036038101906104399190612b65565b61171e565b005b34801561044c57600080fd5b50610467600480360381019061046291906129f4565b6117a4565b6040516104749190612bad565b60405180910390f35b34801561048957600080fd5b50610492611861565b60405161049f9190612b92565b60405180910390f35b3480156104b457600080fd5b506104cf60048036038101906104ca91906129f4565b611867565b005b3480156104dd57600080fd5b506104f860048036038101906104f391906129f4565b611cd0565b6040516105059190612bad565b60405180910390f35b7f000000000000000000000000000000000000000000000000000000000000000081565b61053a611cf0565b8360e00135421115610578576040517f0819bdcd00000000000000000000000000000000000000000000000000000000815260040160405180910390fd5b6002600085600001602081019061058f9190612b65565b73ffffffffffffffffffffffffffffffffffffffff1673ffffffffffffffffffffffffffffffffffffffff168152602001908152602001600020548460c0013514610606576040517f756688fe00000000000000000000000000000000000000000000000000000000815260040160405180910390fd5b60007fdae6e6c77828941043676793d78986b77a85f6a115edd49e62d3e4e0911ef44185600001602081019061063c9190612b65565b866020013587604001358860600160208101906106599190612b65565b89608001602081019061066c9190612b65565b8a60a001358b60c001358c60e0013560405160200161069399989796959493929190612daf565b60405160208183030381529060405280519060200120905060007f0000000000000000000000000000000000000000000000000000000000000000826040516020016106e0929190612eb4565b6040516020818303038152906040528051906020012090506003600082815260200190815260200160002060009054906101000a900460ff1615610750576040517f900bb2c900000000000000000000000000000000000000000000000000000000815260040160405180910390fd5b60006107a986868080601f016020809104026020016040519081016040528093929190818152602001838380828437600081840152601f19601f8201169050808301925050505050505083611d3690919063ffffffff16565b90508660000160208101906107be9190612b65565b73ffffffffffffffffffffffffffffffffffffffff168173ffffffffffffffffffffffffffffffffffffffff1614610822576040517f8baa579f00000000000000000000000000000000000000000000000000000000815260040160405180910390fd5b60016003600084815260200190815260200160002060006101000a81548160ff021916908315150217905550600260008860000160208101906108659190612b65565b73ffffffffffffffffffffffffffffffffffffffff1673ffffffffffffffffffffffffffffffffffffffff16815260200190815260200160002060008154809291906108b090612f1a565b91905055506108df876020013588604001358960600160208101906108d59190612b65565b8a60a00135611d62565b5050506108ea611d86565b50505050565b600080600080600080600080600460008a815260200190815260200160002090508060020160009054906101000a900473ffffffffffffffffffffffffffffffffffffffff168160030160009054906101000a900473ffffffffffffffffffffffffffffffffffffffff168260040160009054906101000a900473ffffffffffffffffffffffffffffffffffffffff16836005015484600101548560060160009054906101000a900460ff168660060160019054906101000a900460ff16975097509750975097509750975050919395979092949650565b7fdae6e6c77828941043676793d78986b77a85f6a115edd49e62d3e4e0911ef44181565b6109f4611cf0565b6000600460008481526020019081526020016000209050600073ffffffffffffffffffffffffffffffffffffffff168160020160009054906101000a900473ffffffffffffffffffffffffffffffffffffffff1673ffffffffffffffffffffffffffffffffffffffff1603610a95576040517f5ec69df000000000000000000000000000000000000000000000000000000000815260040160405180910390fd5b8060060160009054906101000a900460ff1615610ade576040517ff6c6618700000000000000000000000000000000000000000000000000000000815260040160405180910390fd5b8060060160019054906101000a900460ff1615610b27576040517fa2640b2700000000000000000000000000000000000000000000000000000000815260040160405180910390fd5b80600101544210610b64576040517f7a6fcaa600000000000000000000000000000000000000000000000000000000815260040160405180910390fd5b8282604051602001610b769190612f62565b6040516020818303038152906040528051906020012014610bc3576040517fabab6bd700000000000000000000000000000000000000000000000000000000815260040160405180910390fd5b8060020160009054906101000a900473ffffffffffffffffffffffffffffffffffffffff1673ffffffffffffffffffffffffffffffffffffffff163373ffffffffffffffffffffffffffffffffffffffff1614610c4c576040517f9c8d2cd200000000000000000000000000000000000000000000000000000000815260040160405180910390fd5b8060030160009054906101000a900473ffffffffffffffffffffffffffffffffffffffff1673ffffffffffffffffffffffffffffffffffffffff163373ffffffffffffffffffffffffffffffffffffffff1614610cd5576040517f9c8d2cd200000000000000000000000000000000000000000000000000000000815260040160405180910390fd5b60018160060160006101000a81548160ff021916908315150217905550600073ffffffffffffffffffffffffffffffffffffffff168160040160009054906101000a900473ffffffffffffffffffffffffffffffffffffffff1673ffffffffffffffffffffffffffffffffffffffff1603610e1b5760008160030160009054906101000a900473ffffffffffffffffffffffffffffffffffffffff1673ffffffffffffffffffffffffffffffffffffffff168260050154604051610d9890612fae565b60006040518083038185875af1925050503d8060008114610dd5576040519150601f19603f3d011682016040523d82523d6000602084013e610dda565b606091505b5050905080610e15576040517f90b8ec1800000000000000000000000000000000000000000000000000000000815260040160405180910390fd5b50610e93565b610e928160030160009054906101000a900473ffffffffffffffffffffffffffffffffffffffff1682600501548360040160009054906101000a900473ffffffffffffffffffffffffffffffffffffffff1673ffffffffffffffffffffffffffffffffffffffff16611d909092919063ffffffff16565b5b8060030160009054906101000a900473ffffffffffffffffffffffffffffffffffffffff1673ffffffffffffffffffffffffffffffffffffffff16837f7101a42199d5184c26c61de81f21606338bab569912efbd88059560729c877018360040160009054906101000a900473ffffffffffffffffffffffffffffffffffffffff16846005015486604051610f2a93929190612fc3565b60405180910390a350610f3b611d86565b5050565b610f47611e0f565b610f516000611e96565b565b610f5b611cf0565b6000600460008481526020019081526020016000209050600073ffffffffffffffffffffffffffffffffffffffff168160020160009054906101000a900473ffffffffffffffffffffffffffffffffffffffff1673ffffffffffffffffffffffffffffffffffffffff1603610ffc576040517f5ec69df000000000000000000000000000000000000000000000000000000000815260040160405180910390fd5b8060060160009054906101000a900460ff1615611045576040517ff6c6618700000000000000000000000000000000000000000000000000000000815260040160405180910390fd5b8060060160019054906101000a900460ff161561108e576040517fa2640b2700000000000000000000000000000000000000000000000000000000815260040160405180910390fd5b806001015442106110cb576040517f7a6fcaa600000000000000000000000000000000000000000000000000000000815260040160405180910390fd5b82826040516020016110dd9190612f62565b604051602081830303815290604052805190602001201461112a576040517fabab6bd700000000000000000000000000000000000000000000000000000000815260040160405180910390fd5b60018160060160006101000a81548160ff021916908315150217905550600073ffffffffffffffffffffffffffffffffffffffff168160040160009054906101000a900473ffffffffffffffffffffffffffffffffffffffff1673ffffffffffffffffffffffffffffffffffffffff16036112705760008160030160009054906101000a900473ffffffffffffffffffffffffffffffffffffffff1673ffffffffffffffffffffffffffffffffffffffff1682600501546040516111ed90612fae565b60006040518083038185875af1925050503d806000811461122a576040519150601f19603f3d011682016040523d82523d6000602084013e61122f565b606091505b505090508061126a576040517f90b8ec1800000000000000000000000000000000000000000000000000000000815260040160405180910390fd5b506112e8565b6112e78160030160009054906101000a900473ffffffffffffffffffffffffffffffffffffffff1682600501548360040160009054906101000a900473ffffffffffffffffffffffffffffffffffffffff1673ffffffffffffffffffffffffffffffffffffffff16611d909092919063ffffffff16565b5b8060030160009054906101000a900473ffffffffffffffffffffffffffffffffffffffff1673ffffffffffffffffffffffffffffffffffffffff16837f7101a42199d5184c26c61de81f21606338bab569912efbd88059560729c877018360040160009054906101000a900473ffffffffffffffffffffffffffffffffffffffff1684600501548660405161137f93929190612fc3565b60405180910390a350611390611d86565b5050565b60026020528060005260406000206000915090505481565b600080600460008481526020019081526020016000209050600073ffffffffffffffffffffffffffffffffffffffff168160020160009054906101000a900473ffffffffffffffffffffffffffffffffffffffff1673ffffffffffffffffffffffffffffffffffffffff16148061143157508060060160009054906101000a900460ff165b8061144a57508060060160019054906101000a900460ff165b15611459576000915050611465565b80600101544210159150505b919050565b6000600160009054906101000a900473ffffffffffffffffffffffffffffffffffffffff16905090565b61149c611cf0565b6114aa848484600085611f5c565b6114b2611d86565b50505050565b62093a8081565b6114c7611e0f565b600073ffffffffffffffffffffffffffffffffffffffff168273ffffffffffffffffffffffffffffffffffffffff16036115b457600061150561146a565b73ffffffffffffffffffffffffffffffffffffffff168260405161152890612fae565b60006040518083038185875af1925050503d8060008114611565576040519150601f19603f3d011682016040523d82523d6000602084013e61156a565b606091505b50509050806115ae576040517f08c379a00000000000000000000000000000000000000000000000000000000081526004016115a590613057565b60405180910390fd5b506115e7565b6115e66115bf61146a565b828473ffffffffffffffffffffffffffffffffffffffff16611d909092919063ffffffff16565b5b5050565b60036020528060005260406000206000915054906101000a900460ff1681565b611613611cf0565b6116208585858585611f5c565b61164d3330838573ffffffffffffffffffffffffffffffffffffffff16612471909392919063ffffffff16565b611655611d86565b5050505050565b60046020528060005260406000206000915090508060000154908060010154908060020160009054906101000a900473ffffffffffffffffffffffffffffffffffffffff16908060030160009054906101000a900473ffffffffffffffffffffffffffffffffffffffff16908060040160009054906101000a900473ffffffffffffffffffffffffffffffffffffffff16908060050154908060060160009054906101000a900460ff16908060060160019054906101000a900460ff16905088565b611726611e0f565b600073ffffffffffffffffffffffffffffffffffffffff168173ffffffffffffffffffffffffffffffffffffffff16036117985760006040517f1e4fbdf700000000000000000000000000000000000000000000000000000000815260040161178f9190612bc8565b60405180910390fd5b6117a181611e96565b50565b600080600460008481526020019081526020016000209050600073ffffffffffffffffffffffffffffffffffffffff168160020160009054906101000a900473ffffffffffffffffffffffffffffffffffffffff1673ffffffffffffffffffffffffffffffffffffffff16148061182957508060060160009054906101000a900460ff165b8061184257508060060160019054906101000a900460ff165b1561185157600091505061185c565b806001015442109150505b919050565b610e1081565b61186f611cf0565b6000600460008381526020019081526020016000209050600073ffffffffffffffffffffffffffffffffffffffff168160020160009054906101000a900473ffffffffffffffffffffffffffffffffffffffff1673ffffffffffffffffffffffffffffffffffffffff1603611910576040517f5ec69df000000000000000000000000000000000000000000000000000000000815260040160405180910390fd5b8060060160009054906101000a900460ff1615611959576040517ff6c6618700000000000000000000000000000000000000000000000000000000815260040160405180910390fd5b8060060160019054906101000a900460ff16156119a2576040517fa2640b2700000000000000000000000000000000000000000000000000000000815260040160405180910390fd5b80600101544210156119e0576040517f621e25c300000000000000000000000000000000000000000000000000000000815260040160405180910390fd5b8060020160009054906101000a900473ffffffffffffffffffffffffffffffffffffffff1673ffffffffffffffffffffffffffffffffffffffff163373ffffffffffffffffffffffffffffffffffffffff1614611a69576040517f9c8d2cd200000000000000000000000000000000000000000000000000000000815260040160405180910390fd5b60018160060160016101000a81548160ff021916908315150217905550600073ffffffffffffffffffffffffffffffffffffffff168160040160009054906101000a900473ffffffffffffffffffffffffffffffffffffffff1673ffffffffffffffffffffffffffffffffffffffff1603611baf5760008160020160009054906101000a900473ffffffffffffffffffffffffffffffffffffffff1673ffffffffffffffffffffffffffffffffffffffff168260050154604051611b2c90612fae565b60006040518083038185875af1925050503d8060008114611b69576040519150601f19603f3d011682016040523d82523d6000602084013e611b6e565b606091505b5050905080611ba9576040517f90b8ec1800000000000000000000000000000000000000000000000000000000815260040160405180910390fd5b50611c27565b611c268160020160009054906101000a900473ffffffffffffffffffffffffffffffffffffffff1682600501548360040160009054906101000a900473ffffffffffffffffffffffffffffffffffffffff1673ffffffffffffffffffffffffffffffffffffffff16611d909092919063ffffffff16565b5b8060020160009054906101000a900473ffffffffffffffffffffffffffffffffffffffff1673ffffffffffffffffffffffffffffffffffffffff16827fa19ac6ff80a8c71a18b3fd648fa480fa092eceb40ca2af1fadc2a1cc6e1baf7b8360040160009054906101000a900473ffffffffffffffffffffffffffffffffffffffff168460050154604051611cbc929190613077565b60405180910390a350611ccd611d86565b50565b60056020528060005260406000206000915054906101000a900460ff1681565b600260005403611d2c576040517f3ee5aeb500000000000000000000000000000000000000000000000000000000815260040160405180910390fd5b6002600081905550565b600080600080611d4686866124f3565b925092509250611d56828261254f565b82935050505092915050565b611d6a611cf0565b611d78848484600085611f5c565b611d80611d86565b50505050565b6001600081905550565b611e0a838473ffffffffffffffffffffffffffffffffffffffff1663a9059cbb8585604051602401611dc3929190613077565b604051602081830303815290604052915060e01b6020820180517bffffffffffffffffffffffffffffffffffffffffffffffffffffffff83818316178352505050506126b3565b505050565b611e17612755565b73ffffffffffffffffffffffffffffffffffffffff16611e3561146a565b73ffffffffffffffffffffffffffffffffffffffff1614611e9457611e58612755565b6040517f118cdaa7000000000000000000000000000000000000000000000000000000008152600401611e8b9190612bc8565b60405180910390fd5b565b6000600160009054906101000a900473ffffffffffffffffffffffffffffffffffffffff16905081600160006101000a81548173ffffffffffffffffffffffffffffffffffffffff021916908373ffffffffffffffffffffffffffffffffffffffff1602179055508173ffffffffffffffffffffffffffffffffffffffff168173ffffffffffffffffffffffffffffffffffffffff167f8be0079c531659141344cd1fd0a4f28419497f9722a3daafe3b4186f6b6457e060405160405180910390a35050565b6005600086815260200190815260200160002060009054906101000a900460ff1615611fb4576040517fe9204a0600000000000000000000000000000000000000000000000000000000815260040160405180910390fd5b610e1042611fc291906130a0565b841080611fdc575062093a8042611fd991906130a0565b84115b15612013576040517ff8d10e8200000000000000000000000000000000000000000000000000000000815260040160405180910390fd5b600073ffffffffffffffffffffffffffffffffffffffff168373ffffffffffffffffffffffffffffffffffffffff1603612079576040517f9c8d2cd200000000000000000000000000000000000000000000000000000000815260040160405180910390fd5b600081036120b3576040517f2c5211c600000000000000000000000000000000000000000000000000000000815260040160405180910390fd5b600073ffffffffffffffffffffffffffffffffffffffff168273ffffffffffffffffffffffffffffffffffffffff160361212157803414612120576040517f2c5211c600000000000000000000000000000000000000000000000000000000815260040160405180910390fd5b5b600073ffffffffffffffffffffffffffffffffffffffff168273ffffffffffffffffffffffffffffffffffffffff161461220957808273ffffffffffffffffffffffffffffffffffffffff166370a08231336040518263ffffffff1660e01b815260040161218f9190612bc8565b602060405180830381865afa1580156121ac573d6000803e3d6000fd5b505050506040513d601f19601f820116820180604052508101906121d091906130e9565b1015612208576040517ff4d678b800000000000000000000000000000000000000000000000000000000815260040160405180910390fd5b5b6040518061010001604052808681526020018581526020013373ffffffffffffffffffffffffffffffffffffffff1681526020018473ffffffffffffffffffffffffffffffffffffffff1681526020018373ffffffffffffffffffffffffffffffffffffffff1681526020018281526020016000151581526020016000151581525060046000878152602001908152602001600020600082015181600001556020820151816001015560408201518160020160006101000a81548173ffffffffffffffffffffffffffffffffffffffff021916908373ffffffffffffffffffffffffffffffffffffffff16021790555060608201518160030160006101000a81548173ffffffffffffffffffffffffffffffffffffffff021916908373ffffffffffffffffffffffffffffffffffffffff16021790555060808201518160040160006101000a81548173ffffffffffffffffffffffffffffffffffffffff021916908373ffffffffffffffffffffffffffffffffffffffff16021790555060a0820151816005015560c08201518160060160006101000a81548160ff02191690831515021790555060e08201518160060160016101000a81548160ff02191690831515021790555090505060016005600087815260200190815260200160002060006101000a81548160ff0219169083151502179055508273ffffffffffffffffffffffffffffffffffffffff163373ffffffffffffffffffffffffffffffffffffffff16867ff7fed894f2fc26a47c345a04b644fb954bf11c27c2eec80f3f7ffb2cb07ea74285858960405161246293929190613116565b60405180910390a45050505050565b6124ed848573ffffffffffffffffffffffffffffffffffffffff166323b872dd8686866040516024016124a69392919061314d565b604051602081830303815290604052915060e01b6020820180517bffffffffffffffffffffffffffffffffffffffffffffffffffffffff83818316178352505050506126b3565b50505050565b600080600060418451036125385760008060006020870151925060408701519150606087015160001a905061252a8882858561275d565b955095509550505050612548565b60006002855160001b9250925092505b9250925092565b6000600381111561256357612562613184565b5b82600381111561257657612575613184565b5b03156126af57600160038111156125905761258f613184565b5b8260038111156125a3576125a2613184565b5b036125da576040517ff645eedf00000000000000000000000000000000000000000000000000000000815260040160405180910390fd5b600260038111156125ee576125ed613184565b5b82600381111561260157612600613184565b5b03612646578060001c6040517ffce698f700000000000000000000000000000000000000000000000000000000815260040161263d9190612b92565b60405180910390fd5b60038081111561265957612658613184565b5b82600381111561266c5761266b613184565b5b036126ae57806040517fd78bce0c0000000000000000000000000000000000000000000000000000000081526004016126a5919061286a565b60405180910390fd5b5b5050565b600080602060008451602086016000885af1806126d6576040513d6000823e3d81fd5b3d9250600051915050600082146126f157600181141561270d565b60008473ffffffffffffffffffffffffffffffffffffffff163b145b1561274f57836040517f5274afe70000000000000000000000000000000000000000000000000000000081526004016127469190612bc8565b60405180910390fd5b50505050565b600033905090565b60008060007f7fffffffffffffffffffffffffffffff5d576e7357a4501ddfe92f46681b20a08460001c111561279d576000600385925092509250612847565b6000600188888888604051600081526020016040526040516127c294939291906131cf565b6020604051602081039080840390855afa1580156127e4573d6000803e3d6000fd5b505050602060405103519050600073ffffffffffffffffffffffffffffffffffffffff168173ffffffffffffffffffffffffffffffffffffffff160361283857600060016000801b93509350935050612847565b8060008060001b935093509350505b9450945094915050565b6000819050919050565b61286481612851565b82525050565b600060208201905061287f600083018461285b565b92915050565b600080fd5b600080fd5b600080fd5b600061010082840312156128ab576128aa61288f565b5b81905092915050565b600080fd5b600080fd5b600080fd5b60008083601f8401126128d9576128d86128b4565b5b8235905067ffffffffffffffff8111156128f6576128f56128b9565b5b602083019150836001820283011115612912576129116128be565b5b9250929050565b60008115159050919050565b61292e81612919565b811461293957600080fd5b50565b60008135905061294b81612925565b92915050565b600080600080610140858703121561296c5761296b612885565b5b600061297a87828801612894565b94505061010085013567ffffffffffffffff81111561299c5761299b61288a565b5b6129a8878288016128c3565b93509350506101206129bc8782880161293c565b91505092959194509250565b6129d181612851565b81146129dc57600080fd5b50565b6000813590506129ee816129c8565b92915050565b600060208284031215612a0a57612a09612885565b5b6000612a18848285016129df565b91505092915050565b600073ffffffffffffffffffffffffffffffffffffffff82169050919050565b6000612a4c82612a21565b9050919050565b612a5c81612a41565b82525050565b6000819050919050565b612a7581612a62565b82525050565b612a8481612919565b82525050565b600060e082019050612a9f600083018a612a53565b612aac6020830189612a53565b612ab96040830188612a53565b612ac66060830187612a6c565b612ad36080830186612a6c565b612ae060a0830185612a7b565b612aed60c0830184612a7b565b98975050505050505050565b60008060408385031215612b1057612b0f612885565b5b6000612b1e858286016129df565b9250506020612b2f858286016129df565b9150509250929050565b612b4281612a41565b8114612b4d57600080fd5b50565b600081359050612b5f81612b39565b92915050565b600060208284031215612b7b57612b7a612885565b5b6000612b8984828501612b50565b91505092915050565b6000602082019050612ba76000830184612a6c565b92915050565b6000602082019050612bc26000830184612a7b565b92915050565b6000602082019050612bdd6000830184612a53565b92915050565b612bec81612a62565b8114612bf757600080fd5b50565b600081359050612c0981612be3565b92915050565b60008060008060808587031215612c2957612c28612885565b5b6000612c37878288016129df565b9450506020612c4887828801612bfa565b9350506040612c5987828801612b50565b9250506060612c6a87828801612bfa565b91505092959194509250565b60008060408385031215612c8d57612c8c612885565b5b6000612c9b85828601612b50565b9250506020612cac85828601612bfa565b9150509250929050565b600080600080600060a08688031215612cd257612cd1612885565b5b6000612ce0888289016129df565b9550506020612cf188828901612bfa565b9450506040612d0288828901612b50565b9350506060612d1388828901612b50565b9250506080612d2488828901612bfa565b9150509295509295909350565b600061010082019050612d47600083018b61285b565b612d54602083018a612a6c565b612d616040830189612a53565b612d6e6060830188612a53565b612d7b6080830187612a53565b612d8860a0830186612a6c565b612d9560c0830185612a7b565b612da260e0830184612a7b565b9998505050505050505050565b600061012082019050612dc5600083018c61285b565b612dd2602083018b612a53565b612ddf604083018a61285b565b612dec6060830189612a6c565b612df96080830188612a53565b612e0660a0830187612a53565b612e1360c0830186612a6c565b612e2060e0830185612a6c565b612e2e610100830184612a6c565b9a9950505050505050505050565b600081905092915050565b7f1901000000000000000000000000000000000000000000000000000000000000600082015250565b6000612e7d600283612e3c565b9150612e8882612e47565b600282019050919050565b6000819050919050565b612eae612ea982612851565b612e93565b82525050565b6000612ebf82612e70565b9150612ecb8285612e9d565b602082019150612edb8284612e9d565b6020820191508190509392505050565b7f4e487b7100000000000000000000000000000000000000000000000000000000600052601160045260246000fd5b6000612f2582612a62565b91507fffffffffffffffffffffffffffffffffffffffffffffffffffffffffffffffff8203612f5757612f56612eeb565b5b600182019050919050565b6000612f6e8284612e9d565b60208201915081905092915050565b600081905092915050565b50565b6000612f98600083612f7d565b9150612fa382612f88565b600082019050919050565b6000612fb982612f8b565b9150819050919050565b6000606082019050612fd86000830186612a53565b612fe56020830185612a6c565b612ff2604083018461285b565b949350505050565b600082825260208201905092915050565b7f455448207472616e73666572206661696c656400000000000000000000000000600082015250565b6000613041601383612ffa565b915061304c8261300b565b602082019050919050565b6000602082019050818103600083015261307081613034565b9050919050565b600060408201905061308c6000830185612a53565b6130996020830184612a6c565b9392505050565b60006130ab82612a62565b91506130b683612a62565b92508282019050808211156130ce576130cd612eeb565b5b92915050565b6000815190506130e381612be3565b92915050565b6000602082840312156130ff576130fe612885565b5b600061310d848285016130d4565b91505092915050565b600060608201905061312b6000830186612a53565b6131386020830185612a6c565b6131456040830184612a6c565b949350505050565b60006060820190506131626000830186612a53565b61316f6020830185612a53565b61317c6040830184612a6c565b949350505050565b7f4e487b7100000000000000000000000000000000000000000000000000000000600052602160045260246000fd5b600060ff82169050919050565b6131c9816131b3565b82525050565b60006080820190506131e4600083018761285b565b6131f160208301866131c0565b6131fe604083018561285b565b61320b606083018461285b565b9594505050505056fea2646970667358221220bd8f10e0038c221cc1c418f60c6a5c7c64a50d3ed89804444663f3dee1daeacf64736f6c63430008180033",
  "linkReferences": {},
  "deployedLinkReferences": {}
}